S01A00003443485F4C45445F436F6E74726F6C6C65722E7372656394
S11300000C9487000C94A4000C94A4000C94A400F9
S11300100C94A4000C94A4000C94A4000C94A400CC
S11300200C94A4000C94A4000C94A4000C94A400BC
S11300300C94A4000C94A4000C94A4000C94A400AC
S11300400C94A4000C94A4000C9414030C94A40029
S11300500C944B030C94A6000C94A4000C94A400E0
S11300600C94FD010C94A4000C94A4000C94A40022
S11300700C94A4000C94A4000C94A4000C94A4006C
S11300800C94A4000C94A4000C94A4000C94A4005C
S11300900C94A4000C94A4000C94A4000C94E60109
S11300A00C9471020C94A4000C94A4000C94A4006D
S11300B00C94A40008000000BE922449123EABAA8E
S11300C0AA2ABECDCCCC4C3E00000080BEABAAAA6E
S11300D0AA3E00000000BF000000803F00000000B6
S11300E000084178D3BB4387D1133D190E3CC3BDEF
S11300F04282AD2B3E68EC8276BED98FE1A93E4C9C
S113010080EFFFBE01C4FF7F3F0000000000112408
S11301101FBECFEFD8E0DEBFCDBF12E0A0E0B1E05C
S1130120E2E9FEE002C005900D92A232B107D9F7D0
S113013022E0A2E2B2E001C01D92A83FB207E1F7BB
S11301400E945A030C9447070C9400001F920F92CC
S11301500FB60F9211248F9381E0809300018F9149
S11301600F900FBE0F901F901895ECE7F0E0808180
S113017080648083EAE7F0E080818F68808308955B
S1130180ECE7F0E09081907F90839081892B8083CD
S11301900895EAE7F0E0808180688083109200018E
S11301A0808180648083809100018823E1F3209121
S11301B0780080917900EAE7F0E090819F7790835E
S11301C090E0982F8827822B08950E94C0000E94F7
S11301D0C90008950E94C0000E94C900BC0180E0CB
S11301E090E00E94A5052CE63BED4EE052E40E940F
S11301F083060E947605CB0108950E94C0000E94E8
S1130200C900BC0180E090E00E94A5052CEA32EE12
S11302104BEC50E40E9483060E947605CB010895BE
S1130220CF92DF92EF92FF92CF93DF9360E074E07E
S1130230EB01C81BD90BBC0180E090E00E94A5052E
S11302406B017C01BE0180E090E00E94A505A7013E
S113025096010E94FD049B01AC0160E070E48CE116
S113026096E40E94FD0420E030E44CE156E40E9450
S1130270FD040E943B0620E030EE46E755E40E9470
S1130280FD042FE03FEC4BE55BE30E9491049B01EE
S1130290AC0160E070E080E89FE30E94FD0423E38A
S11302A033E948E853E40E94900420E030E040E25F
S11302B051E40E9483060E946F05CB01DF91CF9128
S11302C0FF90EF90DF90CF9008950E94E5000E9488
S11302D010010895662399F0DC01ED91FC911197CA
S11302E021E030E0A90112960C9002C0440F551F82
S11302F00A94E2F7CA019081892B80830895DC0176
S1130300ED91FC91119721E030E0A90112960C9037
S113031002C0440F551F0A94E2F7CA0180959081E8
S1130320892380830895FC0130812181613099F013
S113033018F06230F1F0089581E090E0028002C08C
S1130340880F991F0A94E2F7E32FF22F8095929178
S113035089238083089581E090E0028002C0880FA1
S1130360991F0A94E2F7E32FF22F9291892B80834D
S1130370089581E090E0AC01028002C0440F551F53
S11303800A94E2F7A32FB22F40952E9142234C9367
S1130390A081B181028002C0880F991F0A94E2F7FC
S11303A080959C9189238C930895DC01ED91FC91B7
S11303B0119721E030E0A90112960C9002C0440F7D
S11303C0551F0A94E2F73297408308951F920F92C3
S11303D00FB60F9211248F938091AD0086FF04C055
S11303E081E08093220203C081E0809322028F91F6
S11303F00F900FBE0F901F9018951F920F920FB67B
S11304000F9211248F939F93EF93FF938091B900E0
S1130410887F90E090930201809301018091010113
S113042090910201883A910531F13CF480389105AC
S113043059F0803A9105C9F042C0883B910561F1B9
S1130440803C9105D1F13BC08091B102E091B202B0
S1130450F091B302E80FF11D8091BB00808380917D
S1130460B1028F5F8093B1022AC081E0809323029E
S11304701092B10224C08091B102E091B202F091D5
S1130480B302E80FF11D80818093BB008091B1021B
S11304908F5F8093B10213C08091B102E091B202E8
S11304A0F091B302E80FF11D80818093BB0080912D
S11304B0B1028F5F8093B10202C01092B1028091A9
S11304C02402882329F0ECEBF0E0808180688083AB
S11304D0FF91EF919F918F910F900FBE0F901F90FE
S11304E018951F920F920FB60F9211248F939F931A
S11304F0EF93FF938091D900887F90E0909304015B
S1130500809303018091030190910401883A91053D
S113051031F13CF48038910559F0803A9105C9F0E5
S113052042C0883B910561F1803C9105D1F13BC00B
S11305308091B102E091B202F091B302E80FF11D93
S11305408091DB0080838091B1028F5F8093B10240
S11305502AC081E0809325021092B10224C08091C8
S1130560B102E091B202F091B302E80FF11D808173
S11305708093DB008091B1028F5F8093B10213C03E
S11305808091B102E091B202F091B302E80FF11D43
S113059080818093DB008091B1028F5F8093B102F0
S11305A002C01092B10280912602882329F0ECED5A
S11305B0F0E0808180688083FF91EF919F918F911B
S11305C00F900FBE0F901F9018950F931F93CF930A
S11305D0C82F8B0181E08093260260E072E18AE7F4
S11305E090E00E942507DA01C9014097A109B109E9
S11305F0B695A795979587958093D8008EB183601B
S11306008EB9CE7FCC0FC093DA001092DB00ECEDF4
S1130610F0E0108285EC80831093B3020093B20261
S1130620CF911F910F9108951F920F920FB60F92C1
S113063011248F939F93EF93FF93E091A702F0917E
S1130640A8028091C600E95DFD4F8083E091A70276
S1130650F091A802E95DFD4F80818D3051F481E075
S113066080930501E091A702F091A802E85DFD4F97
S113067010828091A7029091A80201969093A802FB
S11306808093A702FF91EF919F918F910F900FBEDE
S11306900F901F9018951F920F920FB60F9211246E
S11306A08F9381E0809306018F910F900FBE0F907E
S11306B01F90189578949FE088E10FB6F894A89558
S11306C0809360000FBE9093600020E83AE146E01A
S11306D050E064EB72E084E50E94E50260E086E1AC
S11306E092E00E94930160E083E192E00E94930112
S11306F061E08FE192E00E94930161E08FE192E07A
S11307000E946A0161E08CE192E00E94930160E042
S11307108CE192E00E946A0161E089E192E00E942A
S1130720930161E089E192E00E946A0161E080E165
S113073092E00E94930160E080E192E00E946A01ED
S113074061E08DE092E00E94930160E08DE092E030
S11307500E946A0161E08AE092E00E94930160E0F5
S11307608AE092E00E946A0161E087E092E00E94E0
S1130770930160E087E092E00E946A0178940E940D
S1130780B50010928B0010928A001092B30017BC2F
S113079018BC81EA84BD81E085BD91E2909380001C
S11307A08093810091E89093B0008093B1002FEF83
S11307B080E792E0215080409040E1F700C00000C3
S11307C060E089E192E00E946A01A89582E00E94BB
S11307D065019093AC028093AB0284E00E94EA002E
S11307E09093B0028093AF0283E00E94FD00909347
S11307F0AE028093AD028091AF029091B002853039
S113080029E2920718F421E02093A902883F9A4232
S113081010F01092A9028091A9028823D1F061E01E
S11308208FE192E00E946A0160E08CE192E00E9414
S11308306A0189E192E00E94D5011092AA028FE731
S11308409AE126E0815090402040E1F700C000008A
S1130850BCCF60E08FE192E00E946A0160E089E130
S113086092E00E946A0161E08CE192E00E946A01D8
S11308708091AA028F3F49F08F5F8093AA028FE391
S11308809CE90197F1F700C0000030E01CC0832F01
S113089090E0FC01EC50FD4F2081FC01EC54FD4F35
S11308A04081241740F42F3F69F0FC01EC50FD4FC8
S11308B02F5F208307C0222329F0FC01EC50FD4F59
S11308C0215020833F5F353010F3A4EFB2E0EC9168
S11308D0F0E0E95FFE4F808190E090938B0080937D
S11308E08A001196EC911197F0E0E95FFE4F808148
S11308F08093B3001296EC911297F0E0E95FFE4FFB
S1130900808187BD1396EC91F0E0E95FFE4F808112
S113091088BD8FEC97E00197F1F700C0000055CF38
S11309205058BB27AA270E94A8040C94F9050E94DA
S1130930EB0538F00E94F20520F039F49F3F19F4DA
S113094026F40C94E8050EF4E095E7FB0C94E2051C
S1130950E92F0E940A0658F3BA176207730784073F
S1130960950720F079F4A6F50C942C060EF4E09586
S11309700B2EBA2FA02D0B01B90190010C01CA0155
S1130980A0011124FF27591B99F0593F50F4503E00
S113099068F11A16F040A22F232F342F4427585FF2
S11309A0F3CF469537952795A795F0405395C9F70A
S11309B07EF41F16BA0B620B730B840BBAF09150C2
S11309C0A1F0FF0FBB1F661F771F881FC2F70EC061
S11309D0BA0F621F731F841F48F487957795679534
S11309E0B795F7959E3F08F0B0CF9395880F08F020
S11309F09927EE0F9795879508950E9411050C94F9
S1130A00F9050E94F20558F00E94EB0540F029F424
S1130A105F3F29F00C94E20551110C942D060C94BF
S1130A20E8050E940A0668F39923B1F3552391F36C
S1130A30951B550BBB27AA2762177307840738F049
S1130A409F5F5F4F220F331F441FAA1FA9F335D0A6
S1130A500E2E3AF0E0E832D091505040E695001C5A
S1130A60CAF72BD0FE2F29D0660F771F881FBB1F14
S1130A70261737074807AB07B0E809F0BB0B802DF2
S1130A80BF01FF2793585F4F3AF09E3F510578F01E
S1130A900C94E2050C942D065F3FE4F3983ED4F3E6
S1130AA0869577956795B795F7959F5FC9F7880FF2
S1130AB0911D9695879597F90895E1E0660F771F44
S1130AC0881FBB1F621773078407BA0720F0621BD5
S1130AD0730B840BBA0BEE1F88F7E09508950E9400
S1130AE076056894B1110C942D0608950E9412069F
S1130AF088F09F5798F0B92F9927B751B0F0E1F0DB
S1130B00660F771F881F991F1AF0BA95C9F714C08A
S1130B10B13091F00E942C06B1E008950C942C069B
S1130B20672F782F8827B85F39F0B93FCCF38695C3
S1130B3077956795B395D9F73EF490958095709520
S1130B4061957F4F8F4F9F4F0895E89409C097FB9D
S1130B503EF490958095709561957F4F8F4F9F4F90
S1130B609923A9F0F92F96E9BB279395F6958795D4
S1130B7077956795B795F111F8CFFAF4BB0F11F497
S1130B8060FF1BC06F5F7F4F8F4F9F4F16C088233E
S1130B9011F096E911C0772321F09EE8872F762F74
S1130BA005C0662371F096E8862F70E060E02AF0B5
S1130BB09A95660F771F881FDAF7880F96958795A1
S1130BC097F9089597F99F6780E870E060E00895C9
S1130BD09FEF80EC089500240A9416161706180651
S1130BE00906089500240A9412161306140605062D
S1130BF00895092E0394000C11F4882352F0BB0FBE
S1130C0040F4BF2B11F460FF04C06F5F7F4F8F4F20
S1130C109F4F089557FD9058440F551F59F05F3F5B
S1130C2071F04795880F97FB991F61F09F3F79F00A
S1130C3087950895121613061406551FF2CF46958C
S1130C40F1DF08C0161617061806991FF1CF86950E
S1130C507105610508940895E894BB2766277727F2
S1130C60CB0197F9089516F00C94F0060C94E8055E
S1130C7068940C94E2050E941206A8F39923C1F328
S1130C80AEF3DF93CF931F930F93FF92C92FDD270A
S1130C9088232AF02197660F771F881FDAF720E050
S1130CA030E040E85FEB9FE3883920F0803E38F085
S1130CB021968F770E949104E4EBF0E004C00E9437
S1130CC09104E1EEF0E00E94FE068B01BE01EC010E
S1130CD0FB2E6F5771097595771F880B990B0E942E
S1130CE0A70528E132E741E35FE30E949606AF2DB2
S1130CF09801AE01FF900F911F91CF91DF910E9457
S1130D00A8040C94F9050E9496060C94F9050E9417
S1130D10EB0538F00E94F20520F0952311F00C94B5
S1130D20E2050C94E80511240C942D060E940A0691
S1130D3070F3959FC1F3950F50E0551F629FF0012A
S1130D40729FBB27F00DB11D639FAA27F00DB11D43
S1130D50AA1F649F6627B00DA11D661F829F2227CC
S1130D60B00DA11D621F739FB00DA11D621F839F53
S1130D70A00D611D221F749F3327A00D611D231F29
S1130D80849F600D211D822F762F6A2F11249F5777
S1130D9050409AF0F1F088234AF0EE0FFF1FBB1F7A
S1130DA0661F771F881F91505040A9F79E3F510539
S1130DB080F00C94E2050C942D065F3FE4F3983E1A
S1130DC0D4F3869577956795B795F795E7959F5FE3
S1130DD0C1F7FE2B880F911D9695879597F9089575
S1130DE09F3F31F0915020F4879577956795B7959B
S1130DF0880F911D9695879597F90895DF93CF9362
S1130E001F930F93FF92EF92DF927B018C01689402
S1130E1006C0DA2EEF010E949606FE01E894A59121
S1130E202591359145915591A6F3EF010E94A804AF
S1130E30FE019701A801DA9469F7DF90EF90FF9023
S1130E400F911F91CF91DF910895A1E21A2EAA1B51
S1130E50BB1BFD010DC0AA1FBB1FEE1FFF1FA21766
S1130E60B307E407F50720F0A21BB30BE40BF50B63
S1130E70661F771F881F991F1A9469F760957095EC
S1130E80809590959B01AC01BD01CF010895F89424
S1050E90FFCF8E
S1130E9201F800F800010100000000000000000059
S1130EA20000010101010101020202020303030322
S1130EB204040405050506060607070708080909C8
S1130EC2090A0A0B0B0C0C0D0D0D0E0E0F1010114E
S1130ED21112121313141515161617181819191AB4
S1130EE21B1B1C1D1E1E1F202021222323242526FA
S1130EF2262728292A2A2B2C2D2E2E2F3031323325
S1130F02343535363738393A3B3C3D3E3F40414231
S1130F12434445464748494A4B4C4D4E4F50515223
S1130F225354565758595A5B5C5D5F6061626364FF
S1130F32666768696A6C6D6E6F71727374767778BE
S1130F427A7B7C7D7F80818384858788898B8C8E64
S1130F528F909293959697999A9C9D9FA0A2A3A4F1
S1130F62A6A7A9AAACADAFB0B2B4B5B7B8BABBBD67
S1130F72BEC0C2C3C5C6C8CACBCDCFD0D2D3D5D7C3
S1130F82D8DADCDDDFE1E3E4E6E8E9EBEDEFF0F209
S1130F92F4F6F7F9FBFDFF2B00052B0006250003F1
S1130FA22500022E00012E00002800002E00032B33
S1050FB2000732
S9030000FC
