:100000000C9487000C94A4000C94A4000C94A400FD
:100010000C94A4000C94A4000C94A4000C94A400D0
:100020000C94A4000C94A4000C94A4000C94A400C0
:100030000C94A4000C94A4000C94A4000C94A400B0
:100040000C94A4000C94A4000C94FE020C94A40044
:100050000C9435030C94A6000C94A4000C94A400FA
:100060000C94FD010C94A4000C94A4000C94A40026
:100070000C94A4000C94A4000C94A4000C94A40070
:100080000C94A4000C94A4000C94A4000C94A40060
:100090000C94A4000C94A4000C94A4000C94E6010D
:1000A0000C9471020C94A4000C94A4000C94A40071
:1000B0000C94A40008000000BE922449123EABAA92
:1000C000AA2ABECDCCCC4C3E00000080BEABAAAA72
:1000D000AA3E00000000BF000000803F00000000BA
:1000E00000084178D3BB4387D1133D190E3CC3BDF3
:1000F0004282AD2B3E68EC8276BED98FE1A93E4CA0
:1001000080EFFFBE01C4FF7F3F000000000011240C
:100110001FBECFEFD8E0DEBFCDBF11E0A0E0B1E061
:10012000E8E9FDE002C005900D92AC31B107D9F7C6
:1001300021E0ACE1B1E001C01D92AE3AB207E1F7B7
:100140000E9444030C94CA060C9400001F920F9264
:100150000FB60F9211248F9381E0809300018F914D
:100160000F900FBE0F901F901895ECE7F0E0808184
:1001700080648083EAE7F0E080818F68808308955F
:10018000ECE7F0E09081907F90839081892B8083D1
:100190000895EAE7F0E08081806880831092000192
:1001A000808180648083809100018823E1F3209125
:1001B000780080917900EAE7F0E090819F77908362
:1001C00090E0982F8827822B08950E94C0000E94FB
:1001D000C90008950E94C0000E94C900BC0180E0CF
:1001E00090E00E9428052CE63BED4EE052E40E9490
:1001F00006060E94F904CB0108950E94C0000E94E7
:10020000C900BC0180E090E00E9428052CEA32EE93
:100210004BEC50E40E9406060E94F904CB010895BD
:10022000CF92DF92EF92FF92CF93DF9360E074E082
:10023000EB01C81BD90BBC0180E090E00E942805AF
:100240006B017C01BE0180E090E00E942805A701BF
:1002500096010E9480049B01AC0160E070E48CE197
:1002600096E40E94800420E030E44CE156E40E94D1
:1002700080040E94BE0520E030EE46E755E40E946F
:1002800080042FE03FEC4BE55BE30E9414049B01EC
:10029000AC0160E070E080E89FE30E94800423E30B
:1002A00033E948E853E40E94130420E030E040E2E0
:1002B00051E40E9406060E94F204CB01DF91CF9127
:1002C000FF90EF90DF90CF9008950E94E5000E948C
:1002D00010010895662399F0DC01ED91FC911197CE
:1002E00021E030E0A90112960C9002C0440F551F86
:1002F0000A94E2F7CA019081892B80830895DC017A
:10030000ED91FC91119721E030E0A90112960C903B
:1003100002C0440F551F0A94E2F7CA0180959081EC
:10032000892380830895FC0130812181613099F017
:1003300018F06230F1F0089581E090E0028002C090
:10034000880F991F0A94E2F7E32FF22F809592917C
:1003500089238083089581E090E0028002C0880FA5
:10036000991F0A94E2F7E32FF22F9291892B808351
:10037000089581E090E0AC01028002C0440F551F57
:100380000A94E2F7A32FB22F40952E9142234C936B
:10039000A081B181028002C0880F991F0A94E2F700
:1003A00080959C9189238C930895DC01ED91FC91BB
:1003B000119721E030E0A90112960C9002C0440F81
:1003C000551F0A94E2F73297408308951F920F92C7
:1003D0000FB60F9211248F938091AD0086FF04C059
:1003E00081E080931C0103C081E080931C018F9108
:1003F0000F900FBE0F901F9018951F920F920FB67F
:100400000F9211248F939F93EF93FF938091B900E4
:10041000887F90E090930201809301018091010117
:1004200090910201883A910531F13CF480389105B0
:1004300059F0803A9105C9F042C0883B910561F1BD
:10044000803C9105D1F13BC08091AB01E091AC01C2
:10045000F091AD01E80FF11D8091BB008083809188
:10046000AB018F5F8093AB012AC081E080931D01B7
:100470001092AB0124C08091AB01E091AC01F091EE
:10048000AD01E80FF11D80818093BB008091AB012D
:100490008F5F8093AB0113C08091AB01E091AC0101
:1004A000F091AD01E80FF11D80818093BB00809138
:1004B000AB018F5F8093AB0102C01092AB018091C2
:1004C0001E01882329F0ECEBF0E0808180688083B6
:1004D000FF91EF919F918F910F900FBE0F901F9002
:1004E00018951F920F920FB60F9211248F939F931E
:1004F000EF93FF938091D900887F90E0909304015F
:10050000809303018091030190910401883A910541
:1005100031F13CF48038910559F0803A9105C9F0E9
:1005200042C0883B910561F1803C9105D1F13BC00F
:100530008091AB01E091AC01F091AD01E80FF11DAC
:100540008091DB0080838091AB018F5F8093AB0152
:100550002AC081E080931F011092AB0124C08091DA
:10056000AB01E091AC01F091AD01E80FF11D80818C
:100570008093DB008091AB018F5F8093AB0113C050
:100580008091AB01E091AC01F091AD01E80FF11D5C
:1005900080818093DB008091AB018F5F8093AB0102
:1005A00002C01092AB0180912001882329F0ECED6C
:1005B000F0E0808180688083FF91EF919F918F911F
:1005C0000F900FBE0F901F9018959B01AC011092D9
:1005D000200160E074E284EF90E00E94A806DA0156
:1005E000C9014097A109B109B695A7959795879537
:1005F0008093D80085E08093DC0008951F920F92CD
:100600000FB60F9211248F939F93EF93FF93E09176
:10061000A101F091A2018091C600EF5DFE4F8083A1
:10062000E091A101F091A201EF5DFE4F80818D303C
:1006300051F481E080930501E091A101F091A201C4
:10064000EE5DFE4F10828091A1019091A201019672
:100650009093A2018093A101FF91EF919F918F91BF
:100660000F900FBE0F901F9018951F920F920FB60C
:100670000F9211248F9381E0809306018F910F9048
:100680000FBE0F901F90189560E87AE186E090E029
:100690000E94E50261E089E191E00E94930161E03E
:1006A00089E191E00E946A0161E086E191E00E94A7
:1006B000930160E086E191E00E946A0161E083E1DC
:1006C00091E00E94930160E083E191E00E946A0161
:1006D00061E080E191E00E94930160E080E191E0BF
:1006E0000E946A0161E08DE091E00E94930160E068
:1006F0008DE091E00E946A0161E08AE091E00E9451
:10070000930160E08AE091E00E946A0161E087E085
:1007100091E00E94930160E087E091E00E946A010D
:1007200078940E94B50010928B0010928A0010926B
:10073000B30017BC18BC81EA84BD81E085BD91E29D
:10074000909380008093810091E89093B000809313
:10075000B10082E00E9465019093A6018093A501FB
:1007600084E00E94EA009093AA018093A90183E0AB
:100770000E94FD009093A8018093A7018091A90198
:100780009091AA01853029E2920718F421E0209384
:10079000A301883F9A4210F01092A3018091A30117
:1007A0008823A9F061E089E191E00E946A0183E178
:1007B00091E00E94D5011092A4018FEF94E32CE008
:1007C000815090402040E1F700C00000C2CF60E0BF
:1007D00089E191E00E946A0160E083E191E00E947A
:1007E0006A018091A4018F3F61F08F5F8093A40123
:1007F0008FEF99EF20E0815090402040E1F700C05A
:1008000000008091A40190E090938B0080938A0077
:100810008091A4018093B3008091A40187BD809151
:10082000A40188BD96CF5058BB27AA270E942B044D
:100830000C947C050E946E0538F00E94750520F02E
:1008400039F49F3F19F426F40C946B050EF4E095EF
:10085000E7FB0C946505E92F0E948D0558F3BA1744
:10086000620773078407950720F079F4A6F50C94C6
:10087000AF050EF4E0950B2EBA2FA02D0B01B90198
:1008800090010C01CA01A0011124FF27591B99F006
:10089000593F50F4503E68F11A16F040A22F232F12
:1008A000342F4427585FF3CF469537952795A79562
:1008B000F0405395C9F77EF41F16BA0B620B730B09
:1008C000840BBAF09150A1F0FF0FBB1F661F771F7A
:1008D000881FC2F70EC0BA0F621F731F841F48F42F
:1008E000879577956795B795F7959E3F08F0B0CFB8
:1008F0009395880F08F09927EE0F9795879508959F
:100900000E9494040C947C050E94750558F00E9486
:100910006E0540F029F45F3F29F00C9465055111F4
:100920000C94B0050C946B050E948D0568F3992317
:10093000B1F3552391F3951B550BBB27AA276217DB
:100940007307840738F09F5F5F4F220F331F441FE8
:10095000AA1FA9F335D00E2E3AF0E0E832D091501C
:100960005040E695001CCAF72BD0FE2F29D0660F09
:10097000771F881FBB1F261737074807AB07B0E84C
:1009800009F0BB0B802DBF01FF2793585F4F3AF052
:100990009E3F510578F00C9465050C94B0055F3FBF
:1009A000E4F3983ED4F3869577956795B795F795D8
:1009B0009F5FC9F7880F911D9695879597F90895C0
:1009C000E1E0660F771F881FBB1F6217730784075C
:1009D000BA0720F0621B730B840BBA0BEE1F88F76B
:1009E000E09508950E94F9046894B1110C94B00543
:1009F00008950E94950588F09F5798F0B92F992780
:100A0000B751B0F0E1F0660F771F881F991F1AF0F9
:100A1000BA95C9F714C0B13091F00E94AF05B1E0AA
:100A200008950C94AF05672F782F8827B85F39F0A9
:100A3000B93FCCF3869577956795B395D9F73EF492
:100A400090958095709561957F4F8F4F9F4F08953A
:100A5000E89409C097FB3EF4909580957095619558
:100A60007F4F8F4F9F4F9923A9F0F92F96E9BB270E
:100A70009395F695879577956795B795F111F8CF8A
:100A8000FAF4BB0F11F460FF1BC06F5F7F4F8F4FF5
:100A90009F4F16C0882311F096E911C0772321F0EB
:100AA0009EE8872F762F05C0662371F096E8862F83
:100AB00070E060E02AF09A95660F771F881FDAF7DA
:100AC000880F9695879597F9089597F99F6780E81D
:100AD00070E060E008959FEF80EC089500240A9490
:100AE0001616170618060906089500240A94121609
:100AF0001306140605060895092E0394000C11F43C
:100B0000882352F0BB0F40F4BF2B11F460FF04C0E8
:100B10006F5F7F4F8F4F9F4F089557FD9058440F41
:100B2000551F59F05F3F71F04795880F97FB991F4C
:100B300061F09F3F79F08795089512161306140609
:100B4000551FF2CF4695F1DF08C016161706180696
:100B5000991FF1CF86957105610508940895E89471
:100B6000BB2766277727CB0197F9089516F00C94D9
:100B700073060C946B0568940C9465050E949505AA
:100B8000A8F39923C1F3AEF3DF93CF931F930F9391
:100B9000FF92C92FDD2788232AF02197660F771F40
:100BA000881FDAF720E030E040E85FEB9FE3883908
:100BB00020F0803E38F021968F770E941404E4EBF9
:100BC000F0E004C00E941404E1EEF0E00E9481060F
:100BD0008B01BE01EC01FB2E6F5771097595771FD4
:100BE000880B990B0E942A0528E132E741E35FE375
:100BF0000E941906AF2D9801AE01FF900F911F9131
:100C0000CF91DF910E942B040C947C050E94190661
:100C10000C947C050E946E0538F00E94750520F04A
:100C2000952311F00C9465050C946B0511240C941C
:100C3000B0050E948D0570F3959FC1F3950F50E0AC
:100C4000551F629FF001729FBB27F00DB11D639F7E
:100C5000AA27F00DB11DAA1F649F6627B00DA11D24
:100C6000661F829F2227B00DA11D621F739FB00DCA
:100C7000A11D621F839FA00D611D221F749F33273A
:100C8000A00D611D231F849F600D211D822F762FD3
:100C90006A2F11249F5750409AF0F1F088234AF0B0
:100CA000EE0FFF1FBB1F661F771F881F915050401C
:100CB000A9F79E3F510580F00C9465050C94B00592
:100CC0005F3FE4F3983ED4F3869577956795B795A3
:100CD000F795E7959F5FC1F7FE2B880F911D9695BD
:100CE000879597F908959F3F31F0915020F48795AB
:100CF00077956795B795880F911D9695879597F984
:100D00000895DF93CF931F930F93FF92EF92DF929B
:100D10007B018C01689406C0DA2EEF010E9419064F
:100D2000FE01E894A5912591359145915591A6F341
:100D3000EF010E942B04FE019701A801DA9469F7E4
:100D4000DF90EF90FF900F911F91CF91DF91089569
:100D5000A1E21A2EAA1BBB1BFD010DC0AA1FBB1FBF
:100D6000EE1FFF1FA217B307E407F50720F0A21B31
:100D7000B30BE40BF50B661F771F881F991F1A949E
:100D800069F760957095809590959B01AC01BD01C8
:080D9000CF010895F894FFCF94
:100D980001F800F80001012B00052B0006250003CF
:0C0DA8002500022800002E00032B00078D
:00000001FF
